{
  "abi": [
    {
      "type": "constructor",
      "inputs": [
        {
          "name": "_usdc",
          "type": "address",
          "internalType": "address"
        },
        {
          "name": "_usdy",
          "type": "address",
          "internalType": "address"
        },
        {
          "name": "_ousg",
          "type": "address",
          "internalType": "address"
        },
        {
          "name": "_lending",
          "type": "address",
          "internalType": "address"
        },
        {
          "name": "_reserve",
          "type": "address",
          "internalType": "address"
        },
        {
          "name": "_owner",
          "type": "address",
          "internalType": "address"
        }
      ],
      "stateMutability": "nonpayable"
    },
    {
      "type": "function",
      "name": "allocate",
      "inputs": [],
      "outputs": [],
      "stateMutability": "nonpayable"
    },
    {
      "type": "function",
      "name": "canRedeem",
      "inputs": [
        {
          "name": "amount",
          "type": "uint256",
          "internalType": "uint256"
        }
      ],
      "outputs": [
        {
          "name": "",
          "type": "bool",
          "internalType": "bool"
        }
      ],
      "stateMutability": "view"
    },
    {
      "type": "function",
      "name": "getAllocationInfo",
      "inputs": [],
      "outputs": [
        {
          "name": "_totalDeposited",
          "type": "uint256",
          "internalType": "uint256"
        },
        {
          "name": "_totalAllocated",
          "type": "uint256",
          "internalType": "uint256"
        },
        {
          "name": "_hotWallet",
          "type": "uint256",
          "internalType": "uint256"
        }
      ],
      "stateMutability": "view"
    },
    {
      "type": "function",
      "name": "getHotWalletBalance",
      "inputs": [],
      "outputs": [
        {
          "name": "",
          "type": "uint256",
          "internalType": "uint256"
        }
      ],
      "stateMutability": "view"
    },
    {
      "type": "function",
      "name": "getStrategies",
      "inputs": [],
      "outputs": [
        {
          "name": "_usdy",
          "type": "address",
          "internalType": "address"
        },
        {
          "name": "_ousg",
          "type": "address",
          "internalType": "address"
        },
        {
          "name": "_lending",
          "type": "address",
          "internalType": "address"
        },
        {
          "name": "_reserve",
          "type": "address",
          "internalType": "address"
        }
      ],
      "stateMutability": "view"
    },
    {
      "type": "function",
      "name": "harvestAllYield",
      "inputs": [],
      "outputs": [],
      "stateMutability": "nonpayable"
    },
    {
      "type": "function",
      "name": "hotWalletBalance",
      "inputs": [],
      "outputs": [
        {
          "name": "",
          "type": "uint256",
          "internalType": "uint256"
        }
      ],
      "stateMutability": "view"
    },
    {
      "type": "function",
      "name": "hotWalletThreshold",
      "inputs": [],
      "outputs": [
        {
          "name": "",
          "type": "uint256",
          "internalType": "uint256"
        }
      ],
      "stateMutability": "view"
    },
    {
      "type": "function",
      "name": "onMint",
      "inputs": [
        {
          "name": "amount",
          "type": "uint256",
          "internalType": "uint256"
        }
      ],
      "outputs": [],
      "stateMutability": "nonpayable"
    },
    {
      "type": "function",
      "name": "onRedeem",
      "inputs": [
        {
          "name": "to",
          "type": "address",
          "internalType": "address"
        },
        {
          "name": "amount",
          "type": "uint256",
          "internalType": "uint256"
        }
      ],
      "outputs": [],
      "stateMutability": "nonpayable"
    },
    {
      "type": "function",
      "name": "owner",
      "inputs": [],
      "outputs": [
        {
          "name": "",
          "type": "address",
          "internalType": "address"
        }
      ],
      "stateMutability": "view"
    },
    {
      "type": "function",
      "name": "refillHotWallet",
      "inputs": [
        {
          "name": "amount",
          "type": "uint256",
          "internalType": "uint256"
        }
      ],
      "outputs": [],
      "stateMutability": "nonpayable"
    },
    {
      "type": "function",
      "name": "renounceOwnership",
      "inputs": [],
      "outputs": [],
      "stateMutability": "nonpayable"
    },
    {
      "type": "function",
      "name": "reserveWallet",
      "inputs": [],
      "outputs": [
        {
          "name": "",
          "type": "address",
          "internalType": "address"
        }
      ],
      "stateMutability": "view"
    },
    {
      "type": "function",
      "name": "ryUSD",
      "inputs": [],
      "outputs": [
        {
          "name": "",
          "type": "address",
          "internalType": "address"
        }
      ],
      "stateMutability": "view"
    },
    {
      "type": "function",
      "name": "setReserveWallet",
      "inputs": [
        {
          "name": "_reserve",
          "type": "address",
          "internalType": "address"
        }
      ],
      "outputs": [],
      "stateMutability": "nonpayable"
    },
    {
      "type": "function",
      "name": "setRyUSD",
      "inputs": [
        {
          "name": "_ryUSD",
          "type": "address",
          "internalType": "address"
        }
      ],
      "outputs": [],
      "stateMutability": "nonpayable"
    },
    {
      "type": "function",
      "name": "setStrategyLending",
      "inputs": [
        {
          "name": "_strategy",
          "type": "address",
          "internalType": "address"
        }
      ],
      "outputs": [],
      "stateMutability": "nonpayable"
    },
    {
      "type": "function",
      "name": "setStrategyOUSG",
      "inputs": [
        {
          "name": "_strategy",
          "type": "address",
          "internalType": "address"
        }
      ],
      "outputs": [],
      "stateMutability": "nonpayable"
    },
    {
      "type": "function",
      "name": "setStrategyUSDY",
      "inputs": [
        {
          "name": "_strategy",
          "type": "address",
          "internalType": "address"
        }
      ],
      "outputs": [],
      "stateMutability": "nonpayable"
    },
    {
      "type": "function",
      "name": "setYieldManager",
      "inputs": [
        {
          "name": "_yieldManager",
          "type": "address",
          "internalType": "address"
        }
      ],
      "outputs": [],
      "stateMutability": "nonpayable"
    },
    {
      "type": "function",
      "name": "strategyLending",
      "inputs": [],
      "outputs": [
        {
          "name": "",
          "type": "address",
          "internalType": "address"
        }
      ],
      "stateMutability": "view"
    },
    {
      "type": "function",
      "name": "strategyOUSG",
      "inputs": [],
      "outputs": [
        {
          "name": "",
          "type": "address",
          "internalType": "address"
        }
      ],
      "stateMutability": "view"
    },
    {
      "type": "function",
      "name": "strategyUSDY",
      "inputs": [],
      "outputs": [
        {
          "name": "",
          "type": "address",
          "internalType": "address"
        }
      ],
      "stateMutability": "view"
    },
    {
      "type": "function",
      "name": "totalAllocated",
      "inputs": [],
      "outputs": [
        {
          "name": "",
          "type": "uint256",
          "internalType": "uint256"
        }
      ],
      "stateMutability": "view"
    },
    {
      "type": "function",
      "name": "totalDeposited",
      "inputs": [],
      "outputs": [
        {
          "name": "",
          "type": "uint256",
          "internalType": "uint256"
        }
      ],
      "stateMutability": "view"
    },
    {
      "type": "function",
      "name": "transferOwnership",
      "inputs": [
        {
          "name": "newOwner",
          "type": "address",
          "internalType": "address"
        }
      ],
      "outputs": [],
      "stateMutability": "nonpayable"
    },
    {
      "type": "function",
      "name": "usdc",
      "inputs": [],
      "outputs": [
        {
          "name": "",
          "type": "address",
          "internalType": "contract IERC20"
        }
      ],
      "stateMutability": "view"
    },
    {
      "type": "function",
      "name": "yieldManager",
      "inputs": [],
      "outputs": [
        {
          "name": "",
          "type": "address",
          "internalType": "address"
        }
      ],
      "stateMutability": "view"
    },
    {
      "type": "event",
      "name": "Allocated",
      "inputs": [
        {
          "name": "total",
          "type": "uint256",
          "indexed": false,
          "internalType": "uint256"
        },
        {
          "name": "usdy",
          "type": "uint256",
          "indexed": false,
          "internalType": "uint256"
        },
        {
          "name": "ousg",
          "type": "uint256",
          "indexed": false,
          "internalType": "uint256"
        },
        {
          "name": "lending",
          "type": "uint256",
          "indexed": false,
          "internalType": "uint256"
        },
        {
          "name": "reserve",
          "type": "uint256",
          "indexed": false,
          "internalType": "uint256"
        }
      ],
      "anonymous": false
    },
    {
      "type": "event",
      "name": "Deposited",
      "inputs": [
        {
          "name": "from",
          "type": "address",
          "indexed": true,
          "internalType": "address"
        },
        {
          "name": "amount",
          "type": "uint256",
          "indexed": false,
          "internalType": "uint256"
        }
      ],
      "anonymous": false
    },
    {
      "type": "event",
      "name": "HotWalletRefilled",
      "inputs": [
        {
          "name": "amount",
          "type": "uint256",
          "indexed": false,
          "internalType": "uint256"
        }
      ],
      "anonymous": false
    },
    {
      "type": "event",
      "name": "OwnershipTransferred",
      "inputs": [
        {
          "name": "previousOwner",
          "type": "address",
          "indexed": true,
          "internalType": "address"
        },
        {
          "name": "newOwner",
          "type": "address",
          "indexed": true,
          "internalType": "address"
        }
      ],
      "anonymous": false
    },
    {
      "type": "event",
      "name": "Redeemed",
      "inputs": [
        {
          "name": "to",
          "type": "address",
          "indexed": true,
          "internalType": "address"
        },
        {
          "name": "amount",
          "type": "uint256",
          "indexed": false,
          "internalType": "uint256"
        }
      ],
      "anonymous": false
    },
    {
      "type": "event",
      "name": "StrategyUpdated",
      "inputs": [
        {
          "name": "strategyName",
          "type": "string",
          "indexed": false,
          "internalType": "string"
        },
        {
          "name": "oldAddress",
          "type": "address",
          "indexed": false,
          "internalType": "address"
        },
        {
          "name": "newAddress",
          "type": "address",
          "indexed": false,
          "internalType": "address"
        }
      ],
      "anonymous": false
    },
    {
      "type": "event",
      "name": "YieldForwarded",
      "inputs": [
        {
          "name": "yieldManager",
          "type": "address",
          "indexed": true,
          "internalType": "address"
        },
        {
          "name": "amount",
          "type": "uint256",
          "indexed": false,
          "internalType": "uint256"
        }
      ],
      "anonymous": false
    },
    {
      "type": "event",
      "name": "YieldHarvested",
      "inputs": [
        {
          "name": "strategy",
          "type": "string",
          "indexed": true,
          "internalType": "string"
        },
        {
          "name": "amount",
          "type": "uint256",
          "indexed": false,
          "internalType": "uint256"
        },
        {
          "name": "timestamp",
          "type": "uint256",
          "indexed": false,
          "internalType": "uint256"
        }
      ],
      "anonymous": false
    },
    {
      "type": "error",
      "name": "InsufficientLiquidity",
      "inputs": []
    },
    {
      "type": "error",
      "name": "InvalidAddress",
      "inputs": []
    },
    {
      "type": "error",
      "name": "OwnableInvalidOwner",
      "inputs": [
        {
          "name": "owner",
          "type": "address",
          "internalType": "address"
        }
      ]
    },
    {
      "type": "error",
      "name": "OwnableUnauthorizedAccount",
      "inputs": [
        {
          "name": "account",
          "type": "address",
          "internalType": "address"
        }
      ]
    },
    {
      "type": "error",
      "name": "ReentrancyGuardReentrantCall",
      "inputs": []
    },
    {
      "type": "error",
      "name": "SafeERC20FailedOperation",
      "inputs": [
        {
          "name": "token",
          "type": "address",
          "internalType": "address"
        }
      ]
    }
  ],
  "bytecode": {
    "object": "0x60a06040526101f4600755348015610015575f5ffd5b50604051612c67380380612c67833981810160405281019061003791906103d1565b805f73ffffffffffffffffffffffffffffffffffffffff168173ffffffffffffffffffffffffffffffffffffffff16036100a8575f6040517f1e4fbdf700000000000000000000000000000000000000000000000000000000815260040161009f9190610469565b60405180910390fd5b6100b78161028060201b60201c565b5060016100d66100cb61034160201b60201c565b61036a60201b60201c565b5f01819055505f73ffffffffffffffffffffffffffffffffffffffff168673ffffffffffffffffffffffffffffffffffffffff1603610141576040517fe6c4247b00000000000000000000000000000000000000000000000000000000815260040160405180910390fd5b8573ffffffffffffffffffffffffffffffffffffffff1660808173ffffffffffffffffffffffffffffffffffffffff16815250508460015f6101000a81548173ffffffffffffffffffffffffffffffffffffffff021916908373ffffffffffffffffffffffffffffffffffffffff1602179055508360025f6101000a81548173ffffffffffffffffffffffffffffffffffffffff021916908373ffffffffffffffffffffffffffffffffffffffff1602179055508260035f6101000a81548173ffffffffffffffffffffffffffffffffffffffff021916908373ffffffffffffffffffffffffffffffffffffffff1602179055508160045f6101000a81548173ffffffffffffffffffffffffffffffffffffffff021916908373ffffffffffffffffffffffffffffffffffffffff160217905550505050505050610482565b5f5f5f9054906101000a900473ffffffffffffffffffffffffffffffffffffffff169050815f5f6101000a81548173ffffffffffffffffffffffffffffffffffffffff021916908373ffffffffffffffffffffffffffffffffffffffff1602179055508173ffffffffffffffffffffffffffffffffffffffff168173ffffffffffffffffffffffffffffffffffffffff167f8be0079c531659141344cd1fd0a4f28419497f9722a3daafe3b4186f6b6457e060405160405180910390a35050565b5f7f9b779b17422d0df92223018b32b4d1fa46e071723d6817e2486d003becc55f005f1b905090565b5f819050919050565b5f5ffd5b5f73ffffffffffffffffffffffffffffffffffffffff82169050919050565b5f6103a082610377565b9050919050565b6103b081610396565b81146103ba575f5ffd5b50565b5f815190506103cb816103a7565b92915050565b5f5f5f5f5f5f60c087890312156103eb576103ea610373565b5b5f6103f889828a016103bd565b965050602061040989828a016103bd565b955050604061041a89828a016103bd565b945050606061042b89828a016103bd565b935050608061043c89828a016103bd565b92505060a061044d89828a016103bd565b9150509295509295509295565b61046381610396565b82525050565b5f60208201905061047c5f83018461045a565b92915050565b6080516127956104d25f395f8181610664015281816106cc015281816107930152818161085a015281816111ba015281816117250152818161187a015281816119cf0152611b2401526127955ff3fe608060405234801561000f575f5ffd5b50600436106101cd575f3560e01c80638da5cb5b11610102578063d72b11bd116100a0578063f814b8191161006f578063f814b8191461049c578063ff02c212146104a6578063ff50abdc146104c4578063ff5868da146104e2576101cd565b8063d72b11bd14610428578063dda4fa8f14610446578063e15d7aea14610462578063f2fde38b14610480576101cd565b8063abaa9916116100dc578063abaa9916146103c3578063af499c05146103cd578063b18b62c1146103eb578063b49a60bb14610407576101cd565b80638da5cb5b14610369578063942f016d14610387578063a0b4f431146103a3576101cd565b8063634ec5441161016f578063715018a611610149578063715018a6146102f557806374ce962c146102ff57806380b7af181461031b5780638a94680f14610339576101cd565b8063634ec5441461029d57806363c6c18e146102bb5780636d86d7d7146102d9576101cd565b80633dc41bb2116101ab5780633dc41bb2146102275780633e413bee1461024557806345f7f24914610263578063478bccb214610281576101cd565b80631345e697146101d15780632eae5244146101ed578063384a5f3114610209575b5f5ffd5b6101eb60048036038101906101e69190612032565b6104fe565b005b61020760048036038101906102029190612070565b6106bc565b005b610211610763565b60405161021e91906120aa565b60405180910390f35b61022f61076c565b60405161023c91906120d2565b60405180910390f35b61024d610791565b60405161025a9190612146565b60405180910390f35b61026b6107b5565b60405161027891906120aa565b60405180910390f35b61029b60048036038101906102969190612070565b6107bb565b005b6102a5610930565b6040516102b291906120d2565b60405180910390f35b6102c3610955565b6040516102d091906120d2565b60405180910390f35b6102f360048036038101906102ee919061215f565b61097a565b005b6102fd610a1f565b005b6103196004803603810190610314919061215f565b610a32565b005b610323610ae2565b60405161033091906120d2565b60405180910390f35b610353600480360381019061034e9190612070565b610b07565b60405161036091906121a4565b60405180910390f35b610371610b15565b60405161037e91906120d2565b60405180910390f35b6103a1600480360381019061039c919061215f565b610b3c565b005b6103ab610bec565b6040516103ba939291906121bd565b60405180910390f35b6103cb610c03565b005b6103d5610c18565b6040516103e291906120aa565b60405180910390f35b6104056004803603810190610400919061215f565b610c1e565b005b61040f610cc3565b60405161041f94939291906121f2565b60405180910390f35b610430610d5d565b60405161043d91906120d2565b60405180910390f35b610460600480360381019061045b919061215f565b610d82565b005b61046a610e27565b60405161047791906120d2565b60405180910390f35b61049a6004803603810190610495919061215f565b610e4c565b005b6104a4610ed0565b005b6104ae611271565b6040516104bb91906120aa565b60405180910390f35b6104cc611277565b6040516104d991906120aa565b60405180910390f35b6104fc60048036038101906104f7919061215f565b61127d565b005b60055f9054906101000a900473ffffffffffffffffffffffffffffffffffffffff1673ffffffffffffffffffffffffffffffffffffffff163373ffffffffffffffffffffffffffffffffffffffff161461058d576040517f08c379a00000000000000000000000000000000000000000000000000000000081526004016105849061228f565b60405180910390fd5b610595611322565b5f73ffffffffffffffffffffffffffffffffffffffff168273ffffffffffffffffffffffffffffffffffffffff16036105fa576040517fe6c4247b00000000000000000000000000000000000000000000000000000000815260040160405180910390fd5b806008541015610636576040517fbb55fd2700000000000000000000000000000000000000000000000000000000815260040160405180910390fd5b8060095f82825461064791906122da565b925050819055508060085f82825403925050819055506106a882827f000000000000000000000000000000000000000000000000000000000000000073ffffffffffffffffffffffffffffffffffffffff166113449092919063ffffffff16565b6106b0611397565b6106b8611409565b5050565b6106c4611423565b6107113330837f000000000000000000000000000000000000000000000000000000000000000073ffffffffffffffffffffffffffffffffffffffff166114aa909392919063ffffffff16565b8060085f828254610722919061230d565b925050819055507f109c5fbd9b01b523df785c66a3091cddc719944bd186c7dc5fdb12e035e257a08160405161075891906120aa565b60405180910390a150565b5f600854905090565b60055f9054906101000a900473ffffffffffffffffffffffffffffffffffffffff1681565b7f000000000000000000000000000000000000000000000000000000000000000081565b600a5481565b60055f9054906101000a900473ffffffffffffffffffffffffffffffffffffffff1673ffffffffffffffffffffffffffffffffffffffff163373ffffffffffffffffffffffffffffffffffffffff161461084a576040517f08c379a00000000000000000000000000000000000000000000000000000000081526004016108419061228f565b60405180910390fd5b610852611322565b61089f3330837f000000000000000000000000000000000000000000000000000000000000000073ffffffffffffffffffffffffffffffffffffffff166114aa909392919063ffffffff16565b8060095f8282546108b0919061230d565b925050819055508060085f8282546108c8919061230d565b925050819055503373ffffffffffffffffffffffffffffffffffffffff167f2da466a7b24304f47e87fa2e1e5a81b9831ce54fec19055ce277ca2f39ba42c48260405161091591906120aa565b60405180910390a26109256114ff565b61092d611409565b50565b60025f9054906101000a900473ffffffffffffffffffffffffffffffffffffffff1681565b60015f9054906101000a900473ffffffffffffffffffffffffffffffffffffffff1681565b610982611423565b7ff9166c533790a3d51bf6815104830aecc5923324ad09095a2a049adc2a99d66c60035f9054906101000a900473ffffffffffffffffffffffffffffffffffffffff16826040516109d492919061238a565b60405180910390a18060035f6101000a81548173ffffffffffffffffffffffffffffffffffffffff021916908373ffffffffffffffffffffffffffffffffffffffff16021790555050565b610a27611423565b610a305f611554565b565b610a3a611423565b5f73ffffffffffffffffffffffffffffffffffffffff168173ffffffffffffffffffffffffffffffffffffffff1603610a9f576040517fe6c4247b00000000000000000000000000000000000000000000000000000000815260040160405180910390fd5b8060065f6101000a81548173ffffffffffffffffffffffffffffffffffffffff021916908373ffffffffffffffffffffffffffffffffffffffff16021790555050565b60065f9054906101000a900473ffffffffffffffffffffffffffffffffffffffff1681565b5f8160085410159050919050565b5f5f5f9054906101000a900473ffffffffffffffffffffffffffffffffffffffff16905090565b610b44611423565b5f73ffffffffffffffffffffffffffffffffffffffff168173ffffffffffffffffffffffffffffffffffffffff1603610ba9576040517fe6c4247b00000000000000000000000000000000000000000000000000000000815260040160405180910390fd5b8060055f6101000a81548173ffffffffffffffffffffffffffffffffffffffff021916908373ffffffffffffffffffffffffffffffffffffffff16021790555050565b5f5f5f600954600a54600854925092509250909192565b610c0b611423565b610c16600954611615565b565b60085481565b610c26611423565b7ff9166c533790a3d51bf6815104830aecc5923324ad09095a2a049adc2a99d66c60015f9054906101000a900473ffffffffffffffffffffffffffffffffffffffff1682604051610c7892919061240e565b60405180910390a18060015f6101000a81548173ffffffffffffffffffffffffffffffffffffffff021916908373ffffffffffffffffffffffffffffffffffffffff16021790555050565b5f5f5f5f60015f9054906101000a900473ffffffffffffffffffffffffffffffffffffffff1660025f9054906101000a900473ffffffffffffffffffffffffffffffffffffffff1660035f9054906101000a900473ffffffffffffffffffffffffffffffffffffffff1660045f9054906101000a900473ffffffffffffffffffffffffffffffffffffffff16935093509350935090919293565b60045f9054906101000a900473ffffffffffffffffffffffffffffffffffffffff1681565b610d8a611423565b7ff9166c533790a3d51bf6815104830aecc5923324ad09095a2a049adc2a99d66c60045f9054906101000a900473ffffffffffffffffffffffffffffffffffffffff1682604051610ddc929190612492565b60405180910390a18060045f6101000a81548173ffffffffffffffffffffffffffffffffffffffff021916908373ffffffffffffffffffffffffffffffffffffffff16021790555050565b60035f9054906101000a900473ffffffffffffffffffffffffffffffffffffffff1681565b610e54611423565b5f73ffffffffffffffffffffffffffffffffffffffff168173ffffffffffffffffffffffffffffffffffffffff1603610ec4575f6040517f1e4fbdf7000000000000000000000000000000000000000000000000000000008152600401610ebb91906120d2565b60405180910390fd5b610ecd81611554565b50565b610ed8611423565b5f5f90505f73ffffffffffffffffffffffffffffffffffffffff1660015f9054906101000a900473ffffffffffffffffffffffffffffffffffffffff1673ffffffffffffffffffffffffffffffffffffffff1614610fa3575f610f9160015f9054906101000a900473ffffffffffffffffffffffffffffffffffffffff166040518060400160405280600481526020017f5553445900000000000000000000000000000000000000000000000000000000815250611be2565b90508082610f9f919061230d565b9150505b5f73ffffffffffffffffffffffffffffffffffffffff1660025f9054906101000a900473ffffffffffffffffffffffffffffffffffffffff1673ffffffffffffffffffffffffffffffffffffffff161461106a575f61105860025f9054906101000a900473ffffffffffffffffffffffffffffffffffffffff166040518060400160405280600481526020017f4f55534700000000000000000000000000000000000000000000000000000000815250611be2565b90508082611066919061230d565b9150505b5f73ffffffffffffffffffffffffffffffffffffffff1660035f9054906101000a900473ffffffffffffffffffffffffffffffffffffffff1673ffffffffffffffffffffffffffffffffffffffff1614611131575f61111f60035f9054906101000a900473ffffffffffffffffffffffffffffffffffffffff166040518060400160405280600781526020017f4c656e64696e6700000000000000000000000000000000000000000000000000815250611be2565b9050808261112d919061230d565b9150505b5f8111801561118d57505f73ffffffffffffffffffffffffffffffffffffffff1660065f9054906101000a900473ffffffffffffffffffffffffffffffffffffffff1673ffffffffffffffffffffffffffffffffffffffff1614155b1561126e576111fe60065f9054906101000a900473ffffffffffffffffffffffffffffffffffffffff16827f000000000000000000000000000000000000000000000000000000000000000073ffffffffffffffffffffffffffffffffffffffff16611d249092919063ffffffff16565b60065f9054906101000a900473ffffffffffffffffffffffffffffffffffffffff1673ffffffffffffffffffffffffffffffffffffffff167f2ec253acc0d75b9476cdb2c2032d960c699aae29d5176adaafbe7c983de498c98260405161126591906120aa565b60405180910390a25b50565b60075481565b60095481565b611285611423565b7ff9166c533790a3d51bf6815104830aecc5923324ad09095a2a049adc2a99d66c60025f9054906101000a900473ffffffffffffffffffffffffffffffffffffffff16826040516112d7929190612516565b60405180910390a18060025f6101000a81548173ffffffffffffffffffffffffffffffffffffffff021916908373ffffffffffffffffffffffffffffffffffffffff16021790555050565b61132a611dd6565b600261133c611337611e17565b611e40565b5f0181905550565b6113518383836001611e49565b61139257826040517f5274afe700000000000000000000000000000000000000000000000000000000815260040161138991906120d2565b60405180910390fd5b505050565b5f6127106007546009546113ab9190612550565b6113b591906125be565b9050806008541080156113c957505f600954115b15611406577f109c5fbd9b01b523df785c66a3091cddc719944bd186c7dc5fdb12e035e257a05f6040516113fd9190612627565b60405180910390a15b50565b600161141b611416611e17565b611e40565b5f0181905550565b61142b611eab565b73ffffffffffffffffffffffffffffffffffffffff16611449610b15565b73ffffffffffffffffffffffffffffffffffffffff16146114a85761146c611eab565b6040517f118cdaa700000000000000000000000000000000000000000000000000000000815260040161149f91906120d2565b60405180910390fd5b565b6114b8848484846001611eb2565b6114f957836040517f5274afe70000000000000000000000000000000000000000000000000000000081526004016114f091906120d2565b60405180910390fd5b50505050565b5f6127106007546009546115139190612550565b61151d91906125be565b905060028161152c9190612550565b6008541115611551575f8160085461154491906122da565b905061154f81611615565b505b50565b5f5f5f9054906101000a900473ffffffffffffffffffffffffffffffffffffffff169050815f5f6101000a81548173ffffffffffffffffffffffffffffffffffffffff021916908373ffffffffffffffffffffffffffffffffffffffff1602179055508173ffffffffffffffffffffffffffffffffffffffff168173ffffffffffffffffffffffffffffffffffffffff167f8be0079c531659141344cd1fd0a4f28419497f9722a3daafe3b4186f6b6457e060405160405180910390a35050565b5f810315611bdf575f612710610fa08361162f9190612550565b61163991906125be565b90505f612710610dac8461164d9190612550565b61165791906125be565b90505f6127106107d08561166b9190612550565b61167591906125be565b90505f8183858761168691906122da565b61169091906122da565b61169a91906122da565b90505f841180156116f857505f73ffffffffffffffffffffffffffffffffffffffff1660015f9054906101000a900473ffffffffffffffffffffffffffffffffffffffff1673ffffffffffffffffffffffffffffffffffffffff1614155b156117f15761176960015f9054906101000a900473ffffffffffffffffffffffffffffffffffffffff16857f000000000000000000000000000000000000000000000000000000000000000073ffffffffffffffffffffffffffffffffffffffff16611d249092919063ffffffff16565b60015f9054906101000a900473ffffffffffffffffffffffffffffffffffffffff1673ffffffffffffffffffffffffffffffffffffffff1663b6b55f25856040518263ffffffff1660e01b81526004016117c391906120aa565b5f604051808303815f87803b1580156117da575f5ffd5b505af11580156117ec573d5f5f3e3d5ffd5b505050505b5f8311801561184d57505f73ffffffffffffffffffffffffffffffffffffffff1660025f9054906101000a900473ffffffffffffffffffffffffffffffffffffffff1673ffffffffffffffffffffffffffffffffffffffff1614155b15611946576118be60025f9054906101000a900473ffffffffffffffffffffffffffffffffffffffff16847f000000000000000000000000000000000000000000000000000000000000000073ffffffffffffffffffffffffffffffffffffffff16611d249092919063ffffffff16565b60025f9054906101000a900473ffffffffffffffffffffffffffffffffffffffff1673ffffffffffffffffffffffffffffffffffffffff1663b6b55f25846040518263ffffffff1660e01b815260040161191891906120aa565b5f604051808303815f87803b15801561192f575f5ffd5b505af1158015611941573d5f5f3e3d5ffd5b505050505b5f821180156119a257505f73ffffffffffffffffffffffffffffffffffffffff1660035f9054906101000a900473ffffffffffffffffffffffffffffffffffffffff1673ffffffffffffffffffffffffffffffffffffffff1614155b15611a9b57611a1360035f9054906101000a900473ffffffffffffffffffffffffffffffffffffffff16837f000000000000000000000000000000000000000000000000000000000000000073ffffffffffffffffffffffffffffffffffffffff16611d249092919063ffffffff16565b60035f9054906101000a900473ffffffffffffffffffffffffffffffffffffffff1673ffffffffffffffffffffffffffffffffffffffff1663b6b55f25836040518263ffffffff1660e01b8152600401611a6d91906120aa565b5f604051808303815f87803b158015611a84575f5ffd5b505af1158015611a96573d5f5f3e3d5ffd5b505050505b5f81118015611af757505f73ffffffffffffffffffffffffffffffffffffffff1660045f9054906101000a900473ffffffffffffffffffffffffffffffffffffffff1673ffffffffffffffffffffffffffffffffffffffff1614155b15611b6957611b6860045f9054906101000a900473ffffffffffffffffffffffffffffffffffffffff16827f000000000000000000000000000000000000000000000000000000000000000073ffffffffffffffffffffffffffffffffffffffff166113449092919063ffffffff16565b5b8460085f828254611b7a91906122da565b9250508190555084600a5f828254611b92919061230d565b925050819055507f6e8da5d005a81837a3348ed916b3068eb1b6a77c328ed76e4b38be7b56410f65600a5485858585604051611bd2959493929190612640565b60405180910390a1505050505b50565b5f5f8373ffffffffffffffffffffffffffffffffffffffff16632843594f6040518163ffffffff1660e01b8152600401602060405180830381865afa158015611c2d573d5f5f3e3d5ffd5b505050506040513d601f19601f82011682018060405250810190611c5191906126a5565b90505f811115611d19578373ffffffffffffffffffffffffffffffffffffffff16632e1a7d4d826040518263ffffffff1660e01b8152600401611c9491906120aa565b5f604051808303815f87803b158015611cab575f5ffd5b505af1158015611cbd573d5f5f3e3d5ffd5b5050505082604051611ccf9190612722565b60405180910390207fd83d1c40b40714c43db6511bef14775ff56257707fa96c725d11d7b863fb7e648242604051611d08929190612738565b60405180910390a280915050611d1e565b5f9150505b92915050565b611d308383835f611f23565b611dd157611d4183835f6001611f23565b611d8257826040517f5274afe7000000000000000000000000000000000000000000000000000000008152600401611d7991906120d2565b60405180910390fd5b611d8f8383836001611f23565b611dd057826040517f5274afe7000000000000000000000000000000000000000000000000000000008152600401611dc791906120d2565b60405180910390fd5b5b505050565b611dde611f85565b15611e15576040517f3ee5aeb500000000000000000000000000000000000000000000000000000000815260040160405180910390fd5b565b5f7f9b779b17422d0df92223018b32b4d1fa46e071723d6817e2486d003becc55f005f1b905090565b5f819050919050565b5f5f63a9059cbb60e01b9050604051815f525f1960601c86166004528460245260205f60445f5f8b5af1925060015f51148316611e9d578383151615611e91573d5f823e3d81fd5b5f873b113d1516831692505b806040525050949350505050565b5f33905090565b5f5f6323b872dd60e01b9050604051815f525f1960601c87166004525f1960601c86166024528460445260205f60645f5f8c5af1925060015f51148316611f10578383151615611f04573d5f823e3d81fd5b5f883b113d1516831692505b806040525f606052505095945050505050565b5f5f63095ea7b360e01b9050604051815f525f1960601c86166004528460245260205f60445f5f8b5af1925060015f51148316611f77578383151615611f6b573d5f823e3d81fd5b5f873b113d1516831692505b806040525050949350505050565b5f6002611f98611f93611e17565b611e40565b5f015414905090565b5f5ffd5b5f73ffffffffffffffffffffffffffffffffffffffff82169050919050565b5f611fce82611fa5565b9050919050565b611fde81611fc4565b8114611fe8575f5ffd5b50565b5f81359050611ff981611fd5565b92915050565b5f819050919050565b61201181611fff565b811461201b575f5ffd5b50565b5f8135905061202c81612008565b92915050565b5f5f6040838503121561204857612047611fa1565b5b5f61205585828601611feb565b92505060206120668582860161201e565b9150509250929050565b5f6020828403121561208557612084611fa1565b5b5f6120928482850161201e565b91505092915050565b6120a481611fff565b82525050565b5f6020820190506120bd5f83018461209b565b92915050565b6120cc81611fc4565b82525050565b5f6020820190506120e55f8301846120c3565b92915050565b5f819050919050565b5f61210e61210961210484611fa5565b6120eb565b611fa5565b9050919050565b5f61211f826120f4565b9050919050565b5f61213082612115565b9050919050565b61214081612126565b82525050565b5f6020820190506121595f830184612137565b92915050565b5f6020828403121561217457612173611fa1565b5b5f61218184828501611feb565b91505092915050565b5f8115159050919050565b61219e8161218a565b82525050565b5f6020820190506121b75f830184612195565b92915050565b5f6060820190506121d05f83018661209b565b6121dd602083018561209b565b6121ea604083018461209b565b949350505050565b5f6080820190506122055f8301876120c3565b61221260208301866120c3565b61221f60408301856120c3565b61222c60608301846120c3565b95945050505050565b5f82825260208201905092915050565b7f4f6e6c792072795553442063616e2063616c6c000000000000000000000000005f82015250565b5f612279601383612235565b915061228482612245565b602082019050919050565b5f6020820190508181035f8301526122a68161226d565b9050919050565b7f4e487b71000000000000000000000000000000000000000000000000000000005f52601160045260245ffd5b5f6122e482611fff565b91506122ef83611fff565b9250828203905081811115612307576123066122ad565b5b92915050565b5f61231782611fff565b915061232283611fff565b925082820190508082111561233a576123396122ad565b5b92915050565b7f4c656e64696e67000000000000000000000000000000000000000000000000005f82015250565b5f612374600783612235565b915061237f82612340565b602082019050919050565b5f6060820190508181035f8301526123a181612368565b90506123b060208301856120c3565b6123bd60408301846120c3565b9392505050565b7f55534459000000000000000000000000000000000000000000000000000000005f82015250565b5f6123f8600483612235565b9150612403826123c4565b602082019050919050565b5f6060820190508181035f830152612425816123ec565b905061243460208301856120c3565b61244160408301846120c3565b9392505050565b7f52657365727665000000000000000000000000000000000000000000000000005f82015250565b5f61247c600783612235565b915061248782612448565b602082019050919050565b5f6060820190508181035f8301526124a981612470565b90506124b860208301856120c3565b6124c560408301846120c3565b9392505050565b7f4f555347000000000000000000000000000000000000000000000000000000005f82015250565b5f612500600483612235565b915061250b826124cc565b602082019050919050565b5f6060820190508181035f83015261252d816124f4565b905061253c60208301856120c3565b61254960408301846120c3565b9392505050565b5f61255a82611fff565b915061256583611fff565b925082820261257381611fff565b9150828204841483151761258a576125896122ad565b5b5092915050565b7f4e487b71000000000000000000000000000000000000000000000000000000005f52601260045260245ffd5b5f6125c882611fff565b91506125d383611fff565b9250826125e3576125e2612591565b5b828204905092915050565b5f819050919050565b5f61261161260c612607846125ee565b6120eb565b611fff565b9050919050565b612621816125f7565b82525050565b5f60208201905061263a5f830184612618565b92915050565b5f60a0820190506126535f83018861209b565b612660602083018761209b565b61266d604083018661209b565b61267a606083018561209b565b612687608083018461209b565b9695505050505050565b5f8151905061269f81612008565b92915050565b5f602082840312156126ba576126b9611fa1565b5b5f6126c784828501612691565b91505092915050565b5f81519050919050565b5f81905092915050565b8281835e5f83830152505050565b5f6126fc826126d0565b61270681856126da565b93506127168185602086016126e4565b80840191505092915050565b5f61272d82846126f2565b915081905092915050565b5f60408201905061274b5f83018561209b565b612758602083018461209b565b939250505056fea2646970667358221220218598362cd0658b163b298e1eb846ec9095331c8ba112b0314c0b33c75a804e64736f6c63430008210033",
    "linkReferences": {}
  },
  "methodIdentifiers": {
    "allocate()": "abaa9916",
    "canRedeem(uint256)": "8a94680f",
    "getAllocationInfo()": "a0b4f431",
    "getHotWalletBalance()": "384a5f31",
    "getStrategies()": "b49a60bb",
    "harvestAllYield()": "f814b819",
    "hotWalletBalance()": "af499c05",
    "hotWalletThreshold()": "ff02c212",
    "onMint(uint256)": "478bccb2",
    "onRedeem(address,uint256)": "1345e697",
    "owner()": "8da5cb5b",
    "refillHotWallet(uint256)": "2eae5244",
    "renounceOwnership()": "715018a6",
    "reserveWallet()": "d72b11bd",
    "ryUSD()": "3dc41bb2",
    "setReserveWallet(address)": "dda4fa8f",
    "setRyUSD(address)": "942f016d",
    "setStrategyLending(address)": "6d86d7d7",
    "setStrategyOUSG(address)": "ff5868da",
    "setStrategyUSDY(address)": "b18b62c1",
    "setYieldManager(address)": "74ce962c",
    "strategyLending()": "e15d7aea",
    "strategyOUSG()": "634ec544",
    "strategyUSDY()": "63c6c18e",
    "totalAllocated()": "45f7f249",
    "totalDeposited()": "ff50abdc",
    "transferOwnership(address)": "f2fde38b",
    "usdc()": "3e413bee",
    "yieldManager()": "80b7af18"
  },
  "id": 41
}